:060000000A128A110C280F
:10000800FE00030EF2000A08F3000A128A111528EE
:100018000A128A110F28F001F10183010A128A11CC
:100028005428831203138C1C1A281B282E280130ED
:10003800F0070318F10A0030F107203070064E303F
:1000480003197106031D29282A282D28F001F1011A
:1000580088098C1073088A00720E8300FE0E7E0ECB
:10006800090083120313121392121212921112151D
:1000780092101210831603138C14831203138C101E
:10008800FA308316031392000800831603138801BD
:100098000A128A1135200A128A118B170B170800C9
:1000A8000A128A1149200A128A1159280A128A1139
:0200B8000C2812
:02400E00FB3F76
:00000001FF
