:020000040000FA
:060000000A128A11F62F1E
:100DBC0001340A128A11EA260A128A1183160313C5
:100DCC00061286120613080083160313060807384A
:100DDC0086000808F03988008113831203138815E4
:100DEC000815881408140800F2000A128A114A2700
:100DFC000A128A11F3007208031D052F062F082F03
:100E0C0073081C2F730A03190C2F0D2F142F750840
:100E1C000319112F122F142FF501062F730A031D1E
:100E2C00182F192F1B2F0130F500FF3008000A1264
:100E3C008A11DF260A128A1100300A128A11FA2648
:100E4C000A128A11F4007403031D2D2F2E2F322F3A
:100E5C00103083120313860602307406031D372FDD
:100E6C00382F3C2F20308312031386060330740670
:100E7C00031D412F422F222F40308312031386066D
:100E8C00222F0A128A1100288312031388110815C5
:100E9C00881408146430F0000030F100FF30F007C3
:100EAC000318F10AFF30F107700A031D612F710A54
:100EBC00031D612F622F542F831203130618672F03
:100ECC00682F6A2F0130F52F86186D2F6E2F702F1B
:100EDC000230F52F0619732F742F762F0330F52F50
:100EEC0088150811881408146430F0000030F100E3
:100EFC00FF30F0070318F10AFF30F107700A031DE9
:100F0C008B2F710A031D8B2F8C2F7E2F83120313B3
:100F1C000618912F922F942F0430F52F8618972FA7
:100F2C00982F9A2F0530F52F06199D2F9E2FA02F45
:100F3C000630F52F88150815881008146430F00059
:100F4C000030F100FF30F0070318F10AFF30F10711
:100F5C00700A031DB52F710A031DB52FB62FA82FCC
:100F6C00831203130618BB2FBC2FBE2F0730F52F8F
:100F7C008618C12FC22FC42F0830F52F0619C72F82
:100F8C00C82FCA2F0930F52F88150815881408109A
:100F9C006430F0000030F100FF30F0070318F10A64
:100FAC00FF30F107700A031DDF2F710A031DDF2FBD
:100FBC00E02FD22F831203130618E52FE62FE82F0C
:100FCC002A30F52F8618EB2FEC2FEE2F0030F52F53
:100FDC000619F12FF22FF42F2330F52FFF300800D4
:100FEC000A128A11DE260A128A11F50083010A12EE
:040FFC008A111D2F0A
:02400E00FB3F76
:00000001FF
