:020000040000FA
:060000000A128A11F62F1E
:100F84000134831603138615081008000A128A1107
:100F9400C3270A128A11F430F0000130F100013045
:100FA400F0020030031CF103F102700A031DDE2F6E
:100FB400710A031DDE2FDF2FD12F8312031386192D
:100FC400E42FE52FED2F7203031DE92FEA2FED2FF8
:100FD400F20101308806861DF02FF12FF32F013026
:100FE400F2000A128A1100280A128A11C2270A1270
:0C0FF4008A11F20083010A128A11C82F32
:02400E00FB3F76
:00000001FF
