:020000040000FA
:060000000A128A110C280F
:10000800FE00030EF0000A08F1000A128A15082FF4
:100018000A128A110F280A128A11FA270A128A115B
:10002800BF000A128A11F9270A128A11FB00B601C9
:10003800B701B801B901BA01BB01BC01BD01BE01DC
:10004800F901FA0183010A128A111B2B8312031387
:10005800AF002A0A031D312832283728FF30AF00A5
:10006800B601B701B8016230F6008530F70080307C
:10007800F8000A128A156C260A128A11E030F60076
:100088008530F700C030F8000A128A156C260A126B
:100098008A112430F6008530F700D030F8000A12B3
:1000A8008A156C260A128A11C83083120313A80015
:1000B80020300A128A15A7250A128A11C93083121C
:1000C8000313A80020300A128A15A7250A128A11DC
:1000D800CA3083120313A80020300A128A15A725F4
:1000E8000A128A11323083120313AE000130AE02B5
:1000F8002E0A031D802881287A28C830A800643079
:10010800F2000030F3003708F5003608F4000A1250
:100118008A11AE240A128A117208303E0A128A1510
:10012800A7250A128A11C93083120313A8000A30BE
:10013800A0000030A1000A30F2000030F3003708B8
:10014800F5003608F4000A128A11AE240A128A1140
:10015800730883120313A3007208A2000A128A15F7
:10016800CE260A128A11831203132008303E0A127F
:100178008A15A7250A128A11CA3083120313A80008
:100188000A30A0000030A1003708A3003608A200FA
:100198000A128A15CE260A128A118312031320081E
:1001A800303E0A128A15A7250A128A112A308312AC
:1001B80003132F060319E128E2280D2923302F06FF
:1001C8000319E728E8280D292F0A0319EC28ED2838
:1001D8000D29033038020318F228F328DC293708E0
:1001E800F3003608F2000A30F4000030F5000A1275
:1001F8008A151A260A128A11831203132F08720706
:10020800B6000030031801307307B7000130B80793
:10021800DC292A302F06031D122913291729B601B4
:10022800B701B801DC2923302F06031D1C291D291D
:10023800DC2900303702B53003193602031C2529A2
:100248002629DC29B430B6000030B7000A128A1516
:100258006F250A128A117030F6008530F700823057
:10026800F8000A128A156C260A128A11A330F600C1
:100278008530F7009030F8000A128A156C260A12A9
:100288008A11F430F6008530F7009D30F8000A1224
:100298008A156C260A128A113C3083120313BB009C
:1002A8001215CB291A3083120313AD005E30AC004F
:1002B8006D30AB00AB0B5E29AC0B5E29AD0B5E2934
:1002C8006529013083120313BB029A30A8006430F9
:1002D800F2000030F3003B08AB00AC012B08F4003F
:1002E8002C08F5000A128A1194270A128A1172083A
:1002F800303E0A128A15A7250A128A119B308312EA
:100308000313A8000A30A4000030A5000A30F20048
:100318000030F3003B08AB00AC012B08F4002C08BC
:10032800F5000A128A1194270A128A117308831297
:100338000313A7007208A6000A128A1546270A1294
:100348008A11831203132408303E0A128A15A7253E
:100358000A128A119C3083120313A8000A30A400E1
:100368000030A5003B08AB00AC012B08A6002C0808
:10037800A7000A128A1546270A128A118312031344
:100388002408303E0A128A15A7250A128A118312F8
:1003980003133B08031DD129D229562912150A1225
:1003A8008A156F250A128A11133083120313BF00AE
:1003B800080083120313AE002A0A031DE429E52965
:1003C800EB29BA01B901FF30AE00BD01BE011330FF
:1003D800F6008530F7008030F8000A128A156C267E
:1003E8000A128A11EE30F6008530F700C130F800A5
:1003F8000A128A156C260A128A112430F6008530F2
:10040800F700D030F8000A128A156C260A128A11F1
:100418002A30831203132E060319132A142A4A2A90
:1004280023302E060319192A1A2A4A2A2E0A0319D2
:100438001E2A1F2A4A2A0130B90703303902031835
:10044800262A272A352A0A30F2003E080A128A1577
:1004580080250A128A11831203132E07BE00BA01DF
:100468006B2A0530390203183A2A3B2A6B2A0A30CC
:10047800F2003D080A128A1580250A128A11831291
:1004880003132E07BD000130BA006B2A2A302E064E
:10049800031D4F2A502A5C2A3A080319542A552A60
:1004A800592ABD010230B9006B2ABE01B9016B2A75
:1004B80023302E06031D612A622A6B2A071512159E
:1004C800DD30BF000A128A156F250A128A118312BD
:1004D80003133A08031D712A722A852AC930A80015
:1004E80020300A128A15A7250A128A11CA308312E7
:1004F8000313A80020300A128A15A7250A128A11A8
:10050800972AC630A80020300A128A15A7250A1291
:100518008A11C73083120313A80020300A128A15E3
:10052800A7250A128A11323083120313AD00013055
:10053800AD022D0A031DA12AA22A9B2AC930A800B0
:100548000A30F2000030F3003E08AB00AC012B0883
:10055800F4002C08F5000A128A1194270A128A114D
:100568007208303E0A128A15A7250A128A11CA3063
:1005780083120313A8000A30A4000030A5003E0827
:10058800AB00AC012B08A6002C08A7000A128A159C
:1005980046270A128A11831203132408303E0A12CE
:1005A8008A15A7250A128A11C03083120313A800DE
:1005B8003A300A128A15A7250A128A11C630831200
:1005C8000313A8000A30F2000030F3003D08AB0026
:1005D800AC012B08F4002C08F5000A128A119427A4
:1005E8000A128A117208303E0A128A15A7250A12C1
:1005F8008A11C73083120313A8000A30A400003000
:10060800A5003D08AB00AC012B08A6002C08A700EC
:100618000A128A1546270A128A118312031324081C
:10062800303E0A128A15A7250A128A110800831279
:100638000313B4010A128A15D9250A128A11013046
:100648000A128A15F7250A128A1183120313B500B4
:1006580002303F06031D312B322B982B3503031D27
:10066800362B372B642B0A128A156F250A128A112A
:10067800113083120313BF00B4018A30F6008530AD
:10068800F700C030F8000A128A156C260A128A117F
:10069800333083120313B300BB30B200DF30B10034
:1006A800B10B542BB20B542BB30B542B0A128A15D3
:1006B8006F250A128A11FF3083120313BC00982B8E
:1006C80002303506031D692B6A2B752B0A128A1511
:1006D8006F250A128A1183120313B4011230BF0066
:1006E8005F2B03303506031D7A2B7B2B862B0A12D2
:1006F8008A156F250A128A1183120313B401133065
:10070800BF005F2B04303506031D8B2B8C2B982BD9
:100718000A128A156F250A128A11143083120313DC
:10072800BF000130B4005F2BDD303F06031D9D2B59
:100738009E2BCA2B04303506031DA32BA42BB82BE4
:1007480034080319A82BA92B272C3E081E3EBE00EF
:100758003C303E02031CB12BB22BDB2B0130BD0712
:100768003E08C43EBE00272C05303506031DBD2BB0
:10077800BE2BC12BCC30BF00272C06303506031DFD
:10078800C62BC72BDB2BBB30BF00272CCC303F063A
:10079800031DCF2BD02B272C04303506031DD52B5A
:1007A800D62BDB2B07151215DD30BF00272C272C85
:1007B8000A128A159F270A128A110230831203131C
:1007C800BF000A128A156F250A128A11442C0A12D0
:1007D8008A153F260A128A11442C3C08AA003508BB
:1007E8000A128A11DD210A128A11442C0A128A116E
:1007F800F8250A128A11442C07111211442C0711EA
:1008080012110A128A156F250A128A1102308312F0
:100818000313BF00442C3C08AA0035080A128A11A9
:10082800DD210A128A11442C3C08AA0035080A1254
:100838008A112A200A128A11442C0A128A15BC2508
:100848000A128A11442C3F08013A0319DC2B033A97
:100858000319EB2B133A0319F12B033A03190F2C45
:10086800013A0319182C073A0319212CAF3A031936
:10087800032C773A0319002C113A0319FA2B442C4C
:1008880083120313BC01232B0A128A110C28C330CC
:10089800F700CD30F600F60B4F2CF70B4F2CF2017A
:1008A80033300A128A159B260A128A111B30F70068
:1008B8009E30F600F60B5E2CF70B5E2C0000F20162
:1008C80033300A128A159B260A128A11A630F600BE
:1008D800F60B6C2C0000F20133300A128A159B26A5
:1008E8000A128A11772C782C0000F20102300A12C1
:1008F8008A159B260A128A11A630F600F60B822C5E
:100908000000F20128300A128A159B260A128A1161
:10091800A630F600F60B8E2C0000F20101300A1208
:100928008A159B260A128A110430F7003D30F6001A
:10093800F60B9C2CF70B9C2CA12CF2010C300A1204
:100948008A159B260A128A11A630F600F60BAA2CE5
:1009580000000800F601F701720873040319B52CAA
:10096800B62CEB2C0130F800C22C01300310F20D2C
:10097800F30DFF3E031DBA2C0130F807F31FC52CF9
:10098800C62CB92C01300310F60DF70DFF3E031DE0
:10099800C72C73087502031DD32C72087402031C3C
:1009A800D62CD72CDE2C7208F4027308031CF5032E
:1009B800F502761401300310F30CF20CFF3E031D10
:1009C800DF2C0130F802031DEA2CEB2CC62C77082B
:1009D800F3007608F20008008316031306080738A8
:1009E80086000808F03988008113831203138815DC
:1009F800081588140814080043346F346E347634AC
:100A080065346334743469346F346E342034483454
:100A180065346134743469346E3467340034533463
:100A2800453454342034543449344D344534203416
:100A380028344D344D343A34533453342934003443
:100A48002A343A3443344C34453441345234203413
:100A580023343A3445344E34543445345234003413
:100A680045346E346A346F347934203479346F34D1
:100A78007534723420346D34653461346C34003428
:100A880034342E34533454344134523454342F349F
:100A980052344534533455344D34453400344D3490
:100AA8006934633472346F3477346134763465343E
:100AB80020344F34763465346E340034533445343E
:100AC80054342034543445344D34503420343C3478
:100AD8002A3443343E3400345034723465342D346F
:100AE800483465346134743469346E34673420347E
:100AF800003433342E3443346F346E3476346534F2
:100B08006334743469346F346E34003450346F3461
:100B180077346534723420343D34203439343034F9
:100B280030345734003450346F3477346534723489
:100B380069346E34673420344F344E3400345434BE
:100B480069346D3465342034523465346D3420345E
:100B58003A340034543449344D344534203455340F
:100B68005034213421340034543449344D3445341C
:100B780020343A342034003435342E34503441345F
:100B8800553453344534003432342E3447347234B7
:100B980069346C346C34003431342E344D34693457
:100BA800633472346F34003434342E345334743430
:100BB8006134723474340034543445344D34503410
:100BC80020342D34003436342E34533454344F34D6
:100BD80050340034543449344D34453420340034CE
:100BE8007334653463340034B830F6008530F70068
:100BF8008130F8000A128A156C260A128A118C3084
:100C080083120313A8000A30F2000030F3003E08F4
:100C1800AA00AB012A08F4002B08F5000A128A1171
:100C280094270A128A117208303E0A128A15A725DB
:100C38000A128A118D3083120313A8000A30A40007
:100C48000030A5003E08AA00AB012A08A6002B0820
:100C5800A7000A128A1546270A128A11831203135B
:100C68002408303E0A128A15A7250A128A118B30E9
:100C780083120313A8003A300A128A15A7250A120C
:100C88008A11893083120313A8000A30F200003059
:100C9800F3003D08AA00AB012A08F4002B08F50070
:100CA8000A128A1194270A128A117208303E0A120F
:100CB8008A15A7250A128A118A3083120313A800FD
:100CC8000A30A4000030A5003D08AA00AB012A089C
:100CD800A6002B08A7000A128A1546270A128A11AD
:100CE800831203132408303E0A128A15A7250A1214
:100CF8008A114430F6008530F700C130F8000A1236
:100D08008A156C260A128A11C030F6008530F70061
:100D18009130F8000A128A156C260A128A11E730F7
:100D2800F6008530F700D130F8000A128A156C26D3
:100D38000A128A11831203133D08031DA42EA52E3F
:100D4800E72E3E08031DA92EAA2EE72E0A128A15A1
:100D58006F250A128A118312031312110711AE307C
:100D6800F6008530F700C430F8000A128A156C26A0
:100D78000A128A113430F6008530F7009030F800F6
:100D88000A128A156C260A128A1183120313871411
:100D98001A3083120313AC005E30AB006D30AA002A
:100DA800AA0BD42EAB0BD42EAC0BD42EDB2E831275
:100DB800031387100A128A156F250A128A11023046
:100DC80083120313BF000800831203138811081548
:100DD800881408146430F2000030F300FF30F20782
:100DE8000318F30AFF30F307720A031DFF2E730A74
:100DF800031DFF2E002FF22E831203130618052F52
:100E0800062F082F0130932F86180B2F0C2F0E2F2B
:100E18000230932F0619112F122F142F0330932FFE
:100E280088150811881408146430F2000030F300A3
:100E3800FF30F2070318F30AFF30F307720A031DA5
:100E4800292F730A031D292F2A2F1C2F83120313FE
:100E580006182F2F302F322F0430932F8618352F56
:100E6800362F382F0530932F06193B2F3C2F3E2F56
:100E78000630932F88150815881008146430F2007E
:100E88000030F300FF30F2070318F30AFF30F307CE
:100E9800720A031D532F730A031D532F542F462F15
:100EA800831203130618592F5A2F5C2F0730932FDC
:100EB80086185F2F602F622F0830932F0619652F31
:100EC800662F682F0930932F881508158814081085
:100ED8006430F2000030F300FF30F2070318F30A21
:100EE800FF30F307720A031D7D2F730A031D7D2F40
:100EF8007E2F702F831203130618832F842F862FBB
:100F08002A30932F8618892F8A2F8C2F0030932F01
:100F180006198F2F902F922F2330932FFF30080020
:100F280083120313A101F31F9A2F9B2FA22FF209FB
:100F3800F309F20A0319F30A0130A100F51FA52FDE
:100F4800A62FAD2FF409F509F40A0319F50A0130A3
:100F5800A106A201A301720873040319B42FB52FC7
:100F6800EA2F0130A000C12F01300310F20DF30D5C
:100F7800FF3E031DB92F0130A007F31FC42FC52F53
:100F8800B82F01300310A20DA30DFF3E031DC62F7D
:100F980073087502031DD22F72087402031CD52F23
:100FA800D62FDD2F7208F4027308031CF503F5022F
:100FB800221401300310F30CF20CFF3E031DDE2F48
:100FC8000130A002031DE92FEA2FC52F21080319BC
:100FD800EE2FEF2FF42FA209A309A20A0319A30ADF
:0E0FE8002308F3002208F2000800013401344F
:10100000FF1B0A2883137F1883170008840A03191B
:10101000FF0A08007F087F398A000408840A031940
:04102000FF0A820041
:101AC4008316031308080F398800091189100A12B4
:101AD4008A114B240A128A150800F20101300A12F5
:101AE4008A159B260A128A150430F7003D30F60049
:101AF400F60B7A2DF70B7A2D7F2D0800F400F301F5
:101B0400741C852D862D882D7208F3070310F20DA1
:101B14000310F40C7408031D902D912D822D73086D
:101B2400080083120313121392121212921112114B
:101B340092101210831603138C14831203138C1047
:101B4400FA30831603139200080083120313A900CA
:101B5400F20128080A128A159B260A128A15F20134
:101B6400F20A8312031329080A128A159B260A1201
:101B74008A1508001E3083120313BE00BD01071529
:101B8400121513303F06031DC82DC92DD42D003066
:101B9400F6008530F7008030F8000A128A156C26AA
:101BA4000A128A15DD3083120313BF0008000A12DB
:101BB4008A1562250A128A150A128A11F0240A1259
:101BC4008A1583160313071183120313071183164F
:101BD400031387108312031387100A128A1593259F
:101BE4000A128A150B178B170800F4000A128A11BF
:101BF400E8260A128A15F5007408031D022E032E26
:101C0400052E7508192E750A0319092E0A2E112E90
:101C14007B0803190E2E0F2E112EFB01032E750ABD
:101C2400031D152E162E182E0130FB00FF30080060
:101C3400F601F701721C1F2E202E262E7408F607BB
:101C44000318F70A7508F70701300310F40DF50DB2
:101C5400FF3E031D272E01300310F30CF20CFF3E50
:101C6400031D2E2E72087304031D392E3A2E1C2ECA
:101C74007708F3007608F2000800D030F6008530CB
:101C8400F7008030F8000A128A156C260A128A15A9
:101C9400C830F6008530F700C030F8000A128A1503
:101CA4006C260A128A157D30F6008530F7009030D4
:101CB400F8000A128A156C260A128A15D830F60022
:101CC4008530F700D030F8000A128A156C260A1203
:101CD4008A150800F20178080A128A159B260A124E
:101CE4008A158A2EF201F20A7708FF00760884002A
:101CF4000A128A1500200A128A150A128A159B26CE
:101D04000A128A150130F6070318F70A0030F7079C
:101D1400770883120313FF00760884000A128A15D9
:101D240000200A128A15003A031D992E9A2E742E49
:101D34000800F500720C83120313031C0911031825
:101D440009157508F03988008914A630F300F30BDF
:101D5400A92E000083120313891075080F39F300AC
:101D640003300310F30DFF3E031DB32E0310730D58
:101D740088008914A630F300F30BBE2E00008312F2
:101D8400031389101B30F4009E30F300F30BC82EAC
:101D9400F40BC82E0000080083120313200821044A
:101DA4000319D52ED62E032F0130A400E22E0130C4
:101DB4000310A00DA10DFF3E031DDA2E0130A40770
:101DC400A11FE52EE62ED92E21082302031DEC2E99
:101DD40020082202031CEF2EF02EF62E2008A20269
:101DE4002108031CA303A30201300310A10CA00CBF
:101DF400FF3E031DF72E0130A402031D022F032F03
:101E0400E62E2308A1002208A00008008312031371
:101E14008C1C0D2F0E2F3F2F0130F9070318FA0ADF
:101E24000030FA07203079064E3003197A06031D74
:101E34001C2F1D2F3E2FF901FA013E080319232FF1
:101E4400242F272F0130BE023E2F3E08031D2B2FC7
:101E54002C2F362F3D080319302F312F362F013008
:101E6400BD023C30BE003E2F3B0803193A2F3B2FE6
:101E74003E2F0130BB023E2F8C1071088A00700E79
:101E84008300FE0E7E0E0900F70183120313A71FC1
:101E94004C2F4D2F542FA609A709A60A0319A70AE8
:101EA4000130F700A51F572F582F5D2FA409A5094E
:101EB400A40A0319A50A240825040319622F632F11
:101EC400902F0130F6006F2F01300310A40DA50DE3
:101ED400FF3E031D672F0130F607A51F722F732FD6
:101EE400662F25082702031D792F24082602031CC8
:101EF4007C2F7D2F832F2408A6022508031CA7030B
:101F0400A70201300310A50CA40CFF3E031D842F6F
:101F14000130F602031D8F2F902F732F77080319BA
:101F2400942F952F9A2FA609A709A60A0319A70A81
:101F34002708A5002608A400080083120313AD0196
:101F4400AE012D08803EA800FF300A128A15A7258D
:101F54000A128A15013083120313AD070318AE0A5F
:101F64000030AE0700302E02103003192D02031C7E
:101F7400BC2FBD2FA32F9730F6008530F700C23059
:101F8400F8000A128A156C260A128A155330F600D4
:101F94008530F7009130F8000A128A156C260A126F
:101FA4008A1583120313AF01B0012F08D03EA80095
:101FB400FF300A128A15A7250A128A1501308312E6
:101FC4000313AF070318B00A0030B0070030300223
:101FD400103003192F02031CF02FF12FD72F7F305D
:101FE40083120313AC00D430AB003130AA00AA0B27
:0C1FF400F92FAB0BF92FAC0BF92F0800F4
:02400E00FB3F76
:00000001FF
