:020000040000FA
:100000000A128A11FC2F00308A000408840A820731
:10001000003468346F3477342034723420347534CB
:1000200020340034683465346C346C346F340034FC
:060030006834693400345D
:100DE2000A128A11F7260A128A11080083160313BF
:100DF20008080F398800091189100A128A119927E7
:100E02000A128A110800F500F00174080A128A1108
:100E120066270A128A11F001F00A75080A128A116D
:100E220066270A128A110800F00175080A128A114F
:100E320066270A128A112D2FF001F00A7408840025
:100E42000A128A1103200A128A110A128A116627CB
:100E52000A128A110130F407740884000A128A11F6
:100E620003200A128A11003A031D382F392F1D2F31
:100E720008000A128A11F1260A128A118530F4003A
:100E820041300A128A1104270A128A110A30F40028
:100E9200C030F5000A128A1115270A128A11103081
:100EA200F4009030F5000A128A1115270A128A11ED
:100EB2000130F400D030F5000A128A1115270A1207
:100EC2008A113F2F0A128A110028F300700C831234
:100ED2000313031C0911031809157308F03988005C
:100EE2008914A630F100F10B742F00008312031352
:100EF200891073080F39F10003300310F10DFF3E22
:100F0200031D7E2F0310710D88008914A630F10095
:100F1200F10B892F00008312031389101B30F2009A
:100F22009E30F100F10B932FF20B932F000008007B
:100F3200C330F500CD30F400F40B9D2FF50B9D2F3F
:100F4200F00133300A128A1166270A128A111B3005
:100F5200F5009E30F400F40BAC2FF50BAC2F000023
:100F6200F00133300A128A1166270A128A11A6305A
:100F7200F400F40BBA2F0000F00133300A128A1188
:100F820066270A128A11C52FC62F0000F00102300F
:100F92000A128A1166270A128A11A630F400F40B8B
:100FA200D02F0000F00128300A128A1166270A1297
:100FB2008A11A630F400F40BDC2F0000F00101309E
:100FC2000A128A1166270A128A110430F5003D308E
:100FD200F400F40BEA2FF50BEA2FEF2FF0010C309F
:100FE2000A128A1166270A128A11A630F400F40B3B
:0E0FF200F82F0000080083010A128A113A2F1E
:02400E00FB3F76
:00000001FF
